:1000000045C0000060C000005EC000005CC0000091
:100010005AC0000058C0000056C0000054C0000084
:1000200052C0000050C000004EC000004CC0000094
:100030004AC0000048C0000046C0000044C00000A4
:1000400094C1000040C000006EC300003CC000002E
:100050003AC0000038C0000036C0000034C00000C4
:1000600032C0000030C000002EC000002CC00000D4
:100070002AC0000028C0000026C0000024C00000E4
:1000800022C0000020C000001EC0000011241FBEBE
:10009000CFEFD0E1DEBFCDBF12E0A0E0B1E0E8E3FA
:1000A000FFE000E00BBF02C007900D92AA32B1073B
:1000B000D9F725E0AAE2B2E001C01D92A037B2074D
:1000C000E1F7A2D237C79CCF81B3877881BB08956F
:1000D000682F70E0FB01E25DFE4F908180B321E06C
:1000E00030E0A901092E02C0440F551F0A94E2F71F
:1000F000282F30E02423352302C0359527959A9583
:10010000E2F721303105C9F4FB01EE0FFF1FE65D78
:10011000FD4F80819181009781F4EFE5FAEE3197F0
:10012000F1F700C00000660F771FFB01E65DFD4F91
:1001300021E030E0318320830895232BC1F4FB01BB
:10014000EE0FFF1FE65DFD4F8081918181309105AB
:1001500089F4EFE5FAEE3197F1F700C00000660F81
:10016000771FFB01E65DFD4F11821082089580E04C
:1001700090E0089580E090E008958FEF85BB0895AA
:1001800088B38F7088BB08958FEF84BB87B3806F6F
:1001900087BBF3DFF5CF089521E030E002C0220FE6
:1001A000331F8A95E2F728BB089580913602882391
:1001B00019F0813081F017C08DEC689FE12D11247A
:1001C000E695E695E695EE0F8E2F880F880FE80FDF
:1001D0006E1BE62F09C08DEC689FE12D1124E6957A
:1001E000E695E69501C0E0E0F0E0EA5BFE4F808135
:1001F00085BBE0913602F0E0EE5CFE4F8081CCDF03
:100200008091360290E0019681709078992324F4D1
:1002100001978E6F9F6F019680933602089520910B
:100220003402309135022F5F3F4F309335022093D7
:10023000340224363105A8F01092350210923402AF
:100240002091330230E02F5F3F4F27703078332307
:1002500034F421503109286F3F6F2F5F3F4F2093B7
:100260003302611101C0682F80913202813001F1A7
:1002700020F0843008F042C02FC08DEC689F812DA3
:100280001124869586958695880F982F990F990F3A
:10029000890F681BE62FF0E0EA5BFE4F808185BB8B
:1002A000E0913202F0E0EE5CFE4F808175DF26C007
:1002B000EDEC6E9FE12D1124E695E695E695F0E0D4
:1002C000EA5BFE4F808185BBE0913202F0E0EE5C9C
:1002D000FE4F808161DF12C0E0913302F0E0EE0F4B
:1002E000FF1FEA5CFE4F808185BBE0913302F0E0A6
:1002F000EE0FFF1FEA5CFE4F81814EDF80913202DC
:1003000090E0019683709078992324F401978C6F84
:100310009F6F01968093320208951BBA08958FEF64
:100320008ABBFBCF0895282F392F2830310510F0D4
:10033000F4CF089521E030E0A90102C0440F551F19
:100340008A95E2F74BBB089580913702813059F4CA
:10035000E0914202F091430283818F5F8383838126
:100360008C3308F01382089508951F920F920FB6F0
:100370000F9211248F939F93AF93BF9386E082BF18
:100380008091380290913902A0913A02B0913B02DB
:100390000196A11DB11D8093380290933902A0935C
:1003A0003A02B0933B02BF91AF919F918F910F9012
:1003B0000FBE0F901F901895109237028AE191E0BE
:1003C00090934502809344028BE191E09093430225
:1003D00080934202089586E082BF83B7887F83BFFF
:1003E00083B7846083BF87B7816087BF0895809398
:1003F0003702811112C080E090E085D18EDFBDDE32
:10040000BFDE8AE191E090934502809344028BE144
:1004100091E09093430280934202089590934502A5
:1004200080934402209137022230B9F4FC014181CB
:1004300052816381748140934602509347026093D6
:1004400048027093490226E432E03093430220933D
:100450004202858190E057D108C0019690934302F3
:100460008093420280E090E04ED180913702882351
:1004700039F0E0914402F0914502808190E053CF41
:10048000089580913702882319F0823039F0089559
:1004900082E0ADDF8AE191E0C1CF089580E0A7CF8F
:1004A000089580913702882319F0813039F008953A
:1004B00081E09DDF8AE191E0B1CF0895E0914402AF
:1004C000F09145028081813041F018F0823049F08E
:1004D000089584E191E0A2CF08958EE091E09ECF4F
:1004E000089580E084CF0895E0914202F0914302A4
:1004F0008381811121C0828181111EC0E09144025B
:10050000F09145028081813059F018F0823079F005
:10051000089581E591E031D284E191E07FCF0895A3
:1005200088E791E02AD28EE091E078CF08958FE9B4
:1005300091E023D280E05BCF0895A0914402B09176
:100540004502109769F1E0914202F0914302309721
:1005500039F18C91813069F018F0823021F006C0B9
:1005600087EC91E008C082ED91E005C087ED91E055
:1005700002C08CEC91E0328123811F923F931F9245
:100580002F939F938F938FED91E09F938F93E2D161
:100590008DB79EB708960FB6F8949EBF0FBE8DBF5D
:1005A0000895E0914202F09143028381811103C0DA
:1005B0008281882341F1808191810196918380839A
:1005C000E0914202F091430280819181883E934004
:1005D000D0F0B3DFE0914202F09143021182108229
:1005E000E0914202F09143028281811109C083812E
:1005F000882349F08381815083838BE3828308952C
:100600008281815082830895D7DEE5DE5DDD87DE5D
:10061000BBDD06D152D069D080E291E090936D05A8
:1006200080936C057894C12CD12C7601C0E0D0E089
:100630000EC08C2F4DDD892B49F0DD27CC0FDD1F3F
:10064000CA5FDE4FE881F981099504C02196C43064
:10065000D1057CF38091380290913902A0913A0241
:10066000B0913B02C816D906EA06FB0621F1C090FC
:100670003802D0903902E0903A02F0903B0280912B
:1006800037028823C1F0823011F48BDF2DDFE09137
:100690003702F0E0EE0FFF1FE050FF4F0190F081B6
:1006A000E02DA0914202B091430213966C911397F2
:1006B00012968C910995C5D0B9CF82B1886282B962
:1006C000ABE8B0E08C9181608C93EAE8F0E0808147
:1006D000886080838C9188608C9380818360808324
:1006E00010928300109282000895E1E6F0E080818C
:1006F000806C8083E2E6F0E080818F73808380816C
:100700008064808308958B3F91051CF4992334F411
:1007100003C08AEF90E002C080E090E090938300F5
:100720008093820008951F920F920FB60F921124AA
:100730000BB60F922F933F934F935F936F937F93DB
:100740008F939F93AF93BF93EF93FF932CB18091BF
:1007500040029091410201966AE070E0C6D040915B
:100760003E0250913F028417950709F446C02A3093
:1007700011F02D3021F520914002309141028091FD
:100780003C0290913D0240E5429FF001439FF00DF5
:100790001124E65BFD4FE80FF91F108210923D0215
:1007A00010923C02809140029091410201966AE0D1
:1007B00070E09BD090934102809340021EC08091D4
:1007C0003C0290913D028F349105BCF4609140024F
:1007D00070914102AC014F5F5F4F50933D024093D7
:1007E0003C0230E5369FA001379F500D1124465B37
:1007F0005D4FFA01E80FF91F2083FF91EF91BF9140
:10080000AF919F918F917F916F915F914F913F91A8
:100810002F910F900BBE0F900FBE0F901F90189549
:10082000109290008FEC89B98BB182608BB98AB13C
:1008300088698AB908955D9BFECF8CB980E090E00D
:100840000895CF93DF9320913E0230913F02809133
:100850004002909141022817390709F443C0809162
:100860003E0290913F0220E5289FE001299FD00D94
:100870001124C65BDD4FDF93CF9382E092E09F931C
:100880008F9368D04DE050E06FE072E0CE0154D01D
:100890000F900F900F900F90892B51F48091370299
:1008A0008230A1F082E0A3DD8AE191E0B7DD0EC0E5
:1008B0004CE050E06DE172E0CE013ED0892B31F486
:1008C00080913702823011F480E091DD80913E0208
:1008D00090913F0201966AE070E007D090933F024A
:1008E00080933E02DF91CF91089597FB072E16F477
:1008F000009406D077FD08D00BD007FC05D03EF45D
:10090000909581959F4F0895709561957F4F0895BB
:10091000AA1BBB1B51E107C0AA1FBB1FA617B70725
:1009200010F0A61BB70B881F991F5A95A9F7809541
:100930009095BC01CD010895FB01DC014150504070
:1009400030F08D910190801919F40020B9F7881BBF
:10095000990B0895CF93DF93CDB7DEB7AE014B5F10
:100960005F4FFA0161917191AF0180916C05909197
:100970006D0533D0DF91CF9108950F931F93CF93DF
:10098000DF93E0916C05F0916D05238121FF1BC081
:100990008C01D0E0C0E0F80181918F0160916C057D
:1009A00070916D05DB011896ED91FC9119978823E4
:1009B00031F00995892B79F3DFEFCFEFECCF8AE0A7
:1009C0000995892B19F08FEF9FEF02C08D2F9C2F77
:1009D000DF91CF911F910F9108952F923F924F92E7
:1009E0005F926F927F928F929F92AF92BF92CF92BF
:1009F000DF92EF92FF920F931F93CF93DF93CDB7C8
:100A0000DEB72B970FB6F894DEBF0FBECDBF6C01DB
:100A10007B018A01FC0117821682838181FFBFC19D
:100A2000CE0101963C01F6019381F70193FD85917A
:100A300093FF81917F01882309F4ADC1853239F498
:100A400093FD859193FF81917F01853221F4B60159
:100A500090E0D6D1E8CF912C212C312CFFE1F31579
:100A6000D8F08B3279F038F4803279F08332A1F407
:100A7000232D20611DC08D3261F0803369F4232D58
:100A8000216016C0832D8260382EE32DE4603E2E57
:100A90002AC0F32DF8601DC037FC2DC020ED280FB3
:100AA0002A3040F08E32B9F436FC75C1232D206413
:100AB000322E19C036FE06C08AE0989E200D112401
:100AC000922E11C0EAE02E9E200D1124222EF32D2D
:100AD000F0623F2E08C08C3621F4832D8068382EBA
:100AE00002C0883641F4F70193FD859193FF81910F
:100AF0007F018111B3CF982F9F7D9554933028F4B7
:100B00000C5F1F4F9FE399830DC0833631F083370D
:100B100071F0833509F055C020C0F80180818983C8
:100B20000E5F1F4F88248394912C530112C028011B
:100B3000F2E04F0E511CF801A080B18036FE03C0D8
:100B4000692D70E002C06FEF7FEFC5014ED14C01FF
:100B50008201F32DFF773F2E15C0280122E0420EBF
:100B6000511CF801A080B18036FE03C0692D70E0F1
:100B700002C06FEF7FEFC5012DD14C01F32DF0685E
:100B80003F2E820133FC19C0822D90E08816990611
:100B9000A0F4B60180E290E033D12A94F5CFF501BC
:100BA00037FC859137FE81915F01B60190E028D135
:100BB00021102A9421E0821A91088114910479F776
:100BC000E1C0843611F0893639F5F80137FE07C0E7
:100BD00060817181828193810C5F1F4F08C06081A9
:100BE0007181072E000C880B990B0E5F1F4FF32DA0
:100BF000FF763F2E97FF09C090958095709561957F
:100C00007F4F8F4F9F4FF0683F2E2AE030E0A301C7
:100C100033D1882E861844C0853731F4232D2F7E9A
:100C2000B22E2AE030E025C0932D997FB92E8F3661
:100C3000C1F018F4883579F0AEC0803719F08837E4
:100C400021F0A9C0E92FE061BE2EB4FE0DC0FB2D3E
:100C5000F460BF2E09C034FE0AC0292F2660B22ED0
:100C600006C028E030E005C020E130E002C020E10D
:100C700032E0F801B7FE07C0608171818281938103
:100C80000C5F1F4F06C06081718180E090E00E5FB5
:100C90001F4FA301F1D0882E8618FB2DFF773F2E22
:100CA00036FE0DC0232D2E7FA22E891458F434FE5B
:100CB0000BC032FC09C0832D8E7EA82E05C0B82C37
:100CC000A32C03C0B82C01C0B92CA4FE0FC0FE0198
:100CD000E80DF11D8081803321F49A2D997EA92E93
:100CE00009C0A2FE06C0B394B39404C08A2D8678CE
:100CF00009F0B394A3FC10C0A0FE06C0B21480F4A7
:100D0000280C922C9B180DC0B21458F4B60180E246
:100D100090E076D0B394F8CFB21418F42B1802C038
:100D2000982C212CA4FE0FC0B60180E390E068D07F
:100D3000A2FE16C0A1FC03C088E790E002C088E5CF
:100D400090E0B6010CC08A2D867851F0A1FE02C059
:100D50008BE201C080E2A7FC8DE2B60190E050D0AA
:100D6000891430F4B60180E390E04AD09A94F8CF29
:100D70008A94F301E80DF11D8081B60190E040D026
:100D80008110F6CF222009F44ECEB60180E290E029
:100D900037D02A94F7CFF6018681978102C08FEF72
:100DA0009FEF2B960FB6F894DEBF0FBECDBFDF913D
:100DB000CF911F910F91FF90EF90DF90CF90BF9058
:100DC000AF909F908F907F906F905F904F903F90EB
:100DD0002F900895FC010590615070400110D8F7E4
:100DE000809590958E0F9F1F0895FC016150704073
:100DF00001900110D8F7809590958E0F9F1F089550
:100E00000F931F93CF93DF93FB01238121FD03C039
:100E10008FEF9FEF2CC022FF16C04681578124819F
:100E200035814217530744F4A081B1819D012F5FA2
:100E30003F4F318320838C93268137812F5F3F4F33
:100E40003783268314C08B01EC01FB010084F185FC
:100E5000E02D0995892BE1F6D80116968D919C918C
:100E60001797019617969C938E931697CE01DF9154
:100E7000CF911F910F910895FA01AA27283051F1BF
:100E8000203181F1E8946F936E7F6E5F7F4F8F4FBB
:100E90009F4FAF4FB1E03ED0B4E03CD0670F781F1A
:100EA000891F9A1FA11D680F791F8A1F911DA11DFF
:100EB0006A0F711D811D911DA11D20D009F4689438
:100EC0003F912AE0269F11243019305D3193DEF6E0
:100ED000CF010895462F4770405D4193B3E00FD096
:100EE000C9F7F6CF462F4F70405D4A3318F0495D81
:100EF00031FD4052419302D0A9F7EACFB4E0A69564
:100F00009795879577956795BA95C9F70097610585
:100F1000710508959B01AC010A2E069457954795DB
:100F200037952795BA95C9F7620F731F841F951FD0
:080F3000A01D0895F894FFCF05
:100F38000000D5000F0141025102A401B4010200D2
:100F4800000A00FA0100000A00FA0000000A00FA8C
:100F580000000002000000001B0400000000030461
:100F6800050607060504FB05FD05FE05FE04DF046E
:100F7800EF04F704F705C0F9A4B0999282D88098D5
:100F88007F5B53595354454D5D3A20574153482090
:100F9800446F6E652E204D6F76696E6720746F20E2
:100FA80052494E53452E0D005B53595354454D5DE0
:100FB8003A2052494E534520446F6E652E204D6F9E
:100FC80076696E6720746F205350494E2E0D005B72
:100FD80053595354454D5D3A20416C6C2043796315
:100FE8006C65732046696E69736865642053756320
:100FF80063657373210D00574153480052494E539E
:1010080045005350494E00554E4B4E4F574E005BCE
:101018004D4F44455D3A202573207C205B54494D53
:10102800455D3A20253032646D2025303264730DD9
:101038000A00554152542052783A2025730A005329
:10104800544152545F57415348494E470053544FF7
:0A105800505F57415348494E4700CE
:00000001FF
